:100000000C942A000C9447000C9447000C94470071
:100010000C9480090C94A9090C9447000C94470097
:100020000C9447000C9447000C9415090C943E095D
:100030000C9447000C9447000C9447000C94470024
:100040000C9447000C9447000C9447000C94470014
:100050000C94470011241FBECFE5D8E0DEBFCDBF12
:1000600011E0A0E6B0E0E8EEF3E102C005900D92E9
:10007000A631B107D9F711E0A6E1B1E001C01D92A8
:10008000A432B107E1F70E9468050C94F2090C94C0
:100090000000843409F471C0853448F4823499F145
:1000A000833408F04DC0813409F083C00FC082361C
:1000B00051F1833620F4813609F07BC007C08336C6
:1000C00009F43EC0843609F074C057C0413069F469
:1000D0002AB381E090E0AC0102C0440F551F6A953D
:1000E000E2F7BA01622B6ABB08952AB381E090E07F
:1000F000AC0102C0440F551F6A95E2F7BA01609542
:1001000062236ABB0895413069F427B381E090E02F
:10011000AC0102C0440F551F6A95E2F7BA01622B89
:1001200067BB089527B381E090E0AC0102C0440FA3
:10013000551F6A95E2F7BA016095622367BB08957F
:10014000413069F424B381E090E0AC0102C0440F77
:10015000551F6A95E2F7BA01622B64BB089524B378
:1001600081E090E0AC0102C0440F551F6A95E2F7B0
:10017000BA016095622364BB0895413069F421B3EC
:1001800081E090E0AC0102C0440F551F6A95E2F790
:10019000BA01622B61BB089521B381E090E0AC010C
:1001A00002C0440F551F6A95E2F7BA0160956223B9
:1001B00061BB0895843409F471C0853448F48234F5
:1001C00099F1833408F04DC0813409F083C00FC029
:1001D000823651F1833620F4813609F07BC007C0A6
:1001E000833609F43EC0843609F074C057C04130EC
:1001F00069F42BB381E090E0AC0102C0440F551FBD
:100200006A95E2F7BA01622B6BBB08952BB381E0CC
:1002100090E0AC0102C0440F551F6A95E2F7BA01A5
:10022000609562236BBB0895413069F428B381E087
:1002300090E0AC0102C0440F551F6A95E2F7BA0185
:10024000622B68BB089528B381E090E0AC0102C046
:10025000440F551F6A95E2F7BA016095622368BBA7
:100260000895413069F425B381E090E0AC0102C00B
:10027000440F551F6A95E2F7BA01622B65BB0895DA
:1002800025B381E090E0AC0102C0440F551F6A9590
:10029000E2F7BA016095622365BB0895413069F4C5
:1002A00022B381E090E0AC0102C0440F551F6A9573
:1002B000E2F7BA01622B62BB089522B381E090E0BD
:1002C000AC0102C0440F551F6A95E2F7BA01609570
:1002D000622362BB0895843409F43DC0853440F440
:1002E0008234F9F0833450F5813409F040C00CC0F9
:1002F0008236B9F0833618F48136C9F505C08336E5
:10030000E9F08436A1F527C02BB381E090E0AC0181
:1003100002C0440F551F6A95E2F7BA0162276BBB12
:10032000089528B381E090E0AC0102C0440F551F4E
:100330006A95E2F7BA01622768BB089525B381E0A8
:1003400090E0AC0102C0440F551F6A95E2F7BA0174
:10035000622765BB089522B381E090E0AC0102C042
:10036000440F551F6A95E2F7BA01622762BB0895F0
:100370008434B1F1853438F48234E1F0833428F5E3
:100380008134C1F50CC08236A9F0833618F4813669
:1003900089F505C08336C9F0843661F521C029B3DB
:1003A00030E0C90102C0959587956A95E2F7982FCC
:1003B000917020C026B330E0C90102C095958795A1
:1003C0006A95E2F7982F917015C023B330E0C90108
:1003D00002C0959587956A95E2F7982F91700AC0AB
:1003E00020B330E0C90102C0959587956A95E2F780
:1003F000982F9170892F08958434D9F0853438F47A
:10040000823499F0833498F48134A1F40CC082369C
:1004100061F0833618F4813669F405C0833639F00B
:10042000843641F406C06ABB089567BB089564BB77
:10043000089561BB08958434D9F0853438F482344A
:1004400099F0833498F48134A1F40CC0823661F0C1
:10045000833618F4813669F405C0833639F0843662
:1004600041F406C06BBB089568BB089565BB089551
:1004700062BB0895843409F1853438F48234A9F0DC
:100480008334B8F48134E1F40CC0823671F08336E1
:1004900018F48136A9F405C0833659F0843681F406
:1004A0000CC08BB380958BBB089588B3809588BBB7
:1004B000089585B3809585BB089582B3809582BBEE
:1004C00008958434D9F0853438F4823499F0833433
:1004D00098F48134A1F40CC0823661F0833618F4AC
:1004E000813669F405C0833639F0843641F406C09C
:1004F00099B305C096B303C093B301C090B3892FDD
:100500000895843409F471C0853448F4823499F133
:10051000833408F04DC0813409F083C00FC08236A7
:1005200051F1833620F4813609F07BC007C0833651
:1005300009F43EC0843609F074C057C0413069F4F4
:100540002BB381E090E0AC0102C0440F551F6A95C7
:10055000E2F7BA01622B6BBB08952BB381E090E008
:10056000AC0102C0440F551F6A95E2F7BA016095CD
:1005700062236BBB0895413069F428B381E090E0B9
:10058000AC0102C0440F551F6A95E2F7BA01622B15
:1005900068BB089528B381E090E0AC0102C0440F2D
:1005A000551F6A95E2F7BA016095622368BB08950A
:1005B000413069F425B381E090E0AC0102C0440F02
:1005C000551F6A95E2F7BA01622B65BB089525B302
:1005D00081E090E0AC0102C0440F551F6A95E2F73C
:1005E000BA016095622365BB0895413069F422B376
:1005F00081E090E0AC0102C0440F551F6A95E2F71C
:10060000BA01622B62BB089522B381E090E0AC0195
:1006100002C0440F551F6A95E2F7BA016095622344
:1006200062BB08958FB780688FBF08958FB78F77AB
:100630008FBF089582E46FE00E94FC0182E464E0D1
:1006400041E00E94810282E465E041E00E94810273
:1006500082E466E041E00E94810282E467E041E0DA
:100660000E94810282E460E041E00E94DA0082E4BC
:1006700061E041E00E94DA0082E462E041E00E9431
:10068000DA0082E463E041E00E94DA0008950F930B
:100690001F93CF93DF93CDB7DEB760970FB6F89473
:1006A000DEBF0FBECDBFDE011196E0E6F0E080E1D7
:1006B00001900D928150E1F700E082E4602F40E06C
:1006C0000E94DA0010E0612F6C5F82E40E94B801A2
:1006D000882389F4E02FF0E0EE0FFF1FEE0FFF1FDD
:1006E000E10FF11DEC0FFD1F118182E4602F41E04D
:1006F0000E94DA0004C01F5F143029F70CC0812F5C
:1007000060960FB6F894DEBF0FBECDBFDF91CF91DC
:100710001F910F91089582E4602F41E00E94DA005A
:100720000F5F043051F61FEFEACF81E466E041E04D
:100730000E94DA008FE99FE00197F1F700C0000006
:1007400081E466E040E00E94DA008FE99FE00197D3
:10075000F1F700C000000895CF93C82F482F4295AD
:100760004F70417081E460E00E94DA004C2F4295A6
:1007700046954770417081E461E00E94DA004C2F99
:100780004295469546954370417081E462E00E942F
:10079000DA004C2F441F4427441F81E463E00E9489
:1007A000DA0081E464E040E00E94DA000E949503F0
:1007B0004C2F417081E460E00E94DA004C2F469596
:1007C000417081E461E00E94DA004C2F4695469525
:1007D000417081E462E00E94DA00C695C695C69534
:1007E0004C2F417081E463E00E94DA0081E464E010
:1007F00040E00E94DA000E949503CF9108958FE7B0
:1008000099EAA3E081509040A040E1F700C00000C9
:1008100081E460E041E00E94490081E461E041E060
:100820000E94490081E462E041E00E94490081E4C5
:1008300063E041E00E94490081E464E041E00E94FD
:10084000490081E465E041E00E94490081E466E0FE
:1008500041E00E94490081E465E040E00E94DA0046
:1008600082E00E94AC03AFE1BEE41197F1F700C053
:10087000000088E20E94AC038FEC97E00197F1F74B
:1008800000C000008CE00E94AC03AFECB7E0119711
:10089000F1F700C0000081E00E94AC038FE19EE40C
:1008A0000197F1F700C0000086E00E94AC03AFECB6
:1008B000B7E01197F1F700C000000895CF93C82F5B
:1008C000482F42954F70417081E460E00E94DA0049
:1008D0004C2F429546954770417081E461E00E943B
:1008E000DA004C2F4295469546954370417081E45D
:1008F00062E00E94DA004C2F441F4427441F81E429
:1009000063E00E94DA0081E464E041E00E94DA00E2
:100910000E9495034C2F417081E460E00E94DA0050
:100920004C2F4695417081E461E00E94DA004C2F23
:1009300046954695417081E462E00E94DA00C695D2
:10094000C695C6954C2F417081E463E00E94DA00A1
:1009500081E464E041E00E94DA000E949503CF91B7
:10096000089581E00E94AC030895833080F46131E2
:1009700080F4662381F0882381F0813019F4962F6A
:1009800091580CC0823051F4962F915407C090E8D2
:1009900005C090E803C090E801C090E8892F0E944C
:1009A000AC030895CF93DF93EC018881882331F065
:1009B00021960E945E0489918823D9F7DF91CF9117
:1009C00008951F93CF93DF93CDB7DEB728970FB667
:1009D000F894DEBF0FBECDBF8A30910518F00097A6
:1009E00029F42DC0805D0E945E0429C010E02AE039
:1009F00030E0E12FFF27E7FDF09541E050E04C0F9C
:100A00005D1FE40FF51FB9010E94DE098083862F68
:100A1000972F1F5F009769F711168CF41150E12F83
:100A2000FF27E7FDF09581E090E08C0F9D1FE80F18
:100A3000F91F8081805D0E945E04112379F728965A
:100A40000FB6F894DEBF0FBECDBFDF91CF911F91DF
:100A5000089541E00E944900089541E00E94DA00B3
:100A6000089540E00E94DA0008950E946B01089505
:100A70000E94B801089580911A0190911B0101967E
:100A800090931B0180931A0180911A0190911B0190
:100A90008630910520F010921B0110921A010895E2
:100AA00080911601882321F080911601823031F463
:100AB000809119018F5F809319010895809116012B
:100AC000813029F480911901815080931901089592
:100AD0000E94FF030E941A0384E40E94C40883E476
:100AE00060E00E94EA0883E461E00E94EA0883E48F
:100AF00062E00E94EA0883E463E00E94EA0883E47B
:100B000064E00E94EA0883E465E00E94EA0881E468
:100B100067E00E9429050E9404098BE395E00E948A
:100B2000FF080E94710980E595E00E9467090F2E79
:100B3000F0E7AF2EF0E0BF2EF02D0EE810E00F2E04
:100B4000F3EBEF2EF0E0FF2EF02D0F2EFCEC2F2E0E
:100B5000F0E03F2EF02D0F2EF9E9CF2EF0E0DF2E42
:100B6000F02D0F2EFEEB6F2EF0E07F2EF02D0F2ECE
:100B7000F5EA4F2EF0E05F2EF02D0E94B104C50182
:100B80000E94D20482E061E00E94B50481E890E016
:100B90000E94D2040E944703C82F8FE799EAA3E07E
:100BA00081509040A040E1F700C00000DC2FD153FD
:100BB000D33080F78FE799EAA3E081509040A040BE
:100BC000E1F700C000000E94B104D23008F063C118
:100BD000C13319F41092160103C081E0809316010D
:100BE000C8010E94D2040E944703C82F8FE799EAE8
:100BF000A3E081509040A040E1F700C000008C2F9E
:100C000080538A3080F78C2F0E945E048FE799EA28
:100C1000A3E081509040A040E1F700C00000CC0F5D
:100C20008C2F880F880FC80FC05EC09317010E94D9
:100C30004703C82F8FE799EAA3E081509040A04076
:100C4000E1F700C000008C2F80538A3080F78C2F92
:100C50000E945E048FE799EAA3E081509040A04093
:100C6000E1F700C00000809117018053C80FC093C6
:100C70001701809117018831B8F00E94B104C601B4
:100C80000E94D20482E061E00E94B504C2010E9489
:100C9000D2048FEF99E6A8E181509040A040E1F79F
:100CA00000C000000E94B10480911701883108F053
:100CB00097CF82E061E00E94B504C7010E94D20490
:100CC0000E944703C82F8FE799EAA3E08150904024
:100CD000A040E1F700C000008C2F80538A3080F7DD
:100CE0008C2F0E945E048FE799EAA3E08150904028
:100CF000A040E1F700C00000CC0F8C2F880F880FB8
:100D0000C80FC05EC09318010E944703C82F8FE729
:100D100099EAA3E081509040A040E1F700C00000B4
:100D20008C2F80538A3080F78C2F0E945E048FE7CF
:100D300099EAA3E081509040A040E1F700C0000094
:100D4000809118018053C80FC09318018091180139
:100D50008C3330F10E94B104C6010E94D20482E0BB
:100D600061E00E94B504C3010E94D2048FEF99E6AE
:100D7000A8E181509040A040E1F700C000000E942F
:100D8000B104C8010E94D204809117018A3018F47E
:100D900080E30E945E048091170190E00E94E104CC
:100DA000809118018C3308F084CF80911601813036
:100DB00009F07AC00E94B104C7010E94D204809158
:100DC00018018A3018F480E30E945E0480911801B3
:100DD00090E00E94E10482E061E00E94B504C1015C
:100DE0000E94D2040E944703C82F8FE799EAA3E02C
:100DF00081509040A040E1F700C000008C2F80534C
:100E00008A3080F78C2F0E945E048FE799EAA3E076
:100E100081509040A040E1F700C00000CC0FDC2FD3
:100E2000DD0FDD0FDC0F0E944703C82F8FE799EA23
:100E3000A3E081509040A040E1F700C000008C2F5B
:100E400080538A3080F78C2F0E945E048FE799EAE6
:100E5000A3E081509040A040E1F700C00000D051D5
:100E60008D2E8C0E9BE39815F8F40E94B104C601F8
:100E70000E94D20482E061E00E94B504C3010E9496
:100E8000D2048FEF99E6A8E181509040A040E1F7AD
:100E900000C00000A0CFC33339F482E08093160174
:100EA00010921801109217010E94B104809116014E
:100EB000882329F487ED90E00E94D20411C080912C
:100EC0001601813029F482EE90E00E94D20408C01D
:100ED00080911601823021F48DEE90E00E94D204C0
:100EE00082E061E00E94B5048BEF90E00E94D204A2
:100EF00083E460E040E00E94EE0883E461E040E0CB
:100F00000E94EE0883E462E040E00E94EE0883E481
:100F100063E040E00E94EE0883E464E040E00E9469
:100F2000EE0883E465E040E00E94EE0810921901AB
:100F300080911601813011F480921901CAE00F2EC0
:100F4000FBE39F2EF02D0E944703D82F10921B0128
:100F500010921A0183E460E040E00E94EE0883E40E
:100F600065E041E00E94EE08809117016C2F0E941D
:100F7000D209682F84E40E94C80880911A019091D8
:100F80001B010097D1F383E465E040E00E94EE0886
:100F900083E464E041E00E94EE08809117016C2F29
:100FA0000E94D20984E4692F0E94C80880911A0126
:100FB00090911B0181309105C9F383E464E040E026
:100FC0000E94EE0883E463E041E00E94EE08809115
:100FD00018016C2F0E94D209682F84E40E94C8086F
:100FE00080911A0190911B0182309105C9F383E42D
:100FF00063E040E00E94EE0883E462E041E00E948A
:10100000EE08809118016C2F0E94D20984E4692FA8
:101010000E94C80880911A0190911B0183309105AC
:10102000C9F383E462E040E00E94EE0883E461E0FB
:1010300041E00E94EE08809119016C2F0E94D209B4
:10104000682F84E40E94C80880911A0190911B01C6
:1010500084309105C9F383E461E040E00E94EE082A
:1010600083E460E041E00E94EE08809119016C2F5A
:101070000E94D20984E4692F0E94C80880911A0155
:1010800090911B0185309105C9F380911601882349
:1010900021F0809116018230E9F4809119018C339E
:1010A00038F010921901809118018F5F8093180118
:1010B000809118018C3338F010921801809117013B
:1010C0008F5F8093170180911701883170F1109222
:1010D00017012BC080911601813039F580911901DB
:1010E000882339F4909219018091180181508093DE
:1010F000180180911801853638F09092180180917E
:10110000170181508093170180911701853668F08F
:1011100010921701109218011092190183E0809328
:10112000160181E467E00E942D05D13409F00BCF50
:101130008FEF91EEA4E081509040A040E1F700C015
:10114000000083E460E040E00E94EE0883E461E098
:1011500040E00E94EE0883E462E040E00E94EE0876
:1011600083E463E040E00E94EE0883E464E040E052
:101170000E94EE0883E465E040E00E94EE0881E40E
:1011800067E00E943105F9CC6FEF0E94FC010895E1
:10119000CF93DF93CDB7DEB72A970FB6F894DEBFB3
:1011A0000FBECDBFDE011196ECE0F1E09AE00190B8
:1011B0000D929150E1F7FE01E60FF11D61810E9451
:1011C0001B022A960FB6F894DEBF0FBECDBFDF918B
:1011D000CF91089541E00E9449000895413021F4E3
:1011E00040E00E94DA000895442319F441E00E948F
:1011F000DA00089590931F0180931E010895909343
:101200001D0180931C01089583B7886083BF87E226
:101210008CBF83B7816083BF83B7846083BF0E9424
:10122000120389B7826089BF08951F920F920FB68B
:101230000F9211242F933F934F935F936F937F935C
:101240008F939F93AF93BF93EF93FF93E0911C0114
:10125000F0911D01309709F00995FF91EF91BF9131
:10126000AF919F918F917F916F915F914F913F913E
:101270002F910F900FBE0F901F9018951F920F92F5
:101280000FB60F9211242F933F934F935F936F9359
:101290007F938F939F93AF93BF93EF93FF93E091CF
:1012A0001E01F0911F01309709F00995FF91EF9110
:1012B000BF91AF919F918F917F916F915F914F916E
:1012C0003F912F910F900FBE0F901F901895909304
:1012D000230180932201089590932101809320019E
:1012E000089582B5886082BD85B5816085BD85B56C
:1012F000846085BD0E94120389B7806489BF089508
:101300001F920F920FB60F9211242F933F934F937A
:101310005F936F937F938F939F93AF93BF93EF935D
:10132000FF93E0912001F0912101309709F0099598
:10133000FF91EF91BF91AF919F918F917F916F91AD
:101340005F914F913F912F910F900FBE0F901F9083
:1013500018951F920F920FB60F9211242F933F935F
:101360004F935F936F937F938F939F93AF93BF93AD
:10137000EF93FF93E0912201F0912301309709F060
:101380000995FF91EF91BF91AF919F918F917F91BF
:101390006F915F914F913F912F910F900FBE0F90E2
:1013A0001F901895991B79E004C0991F961708F0B3
:1013B000961B881F7A95C9F780950895AA1BBB1BB9
:1013C00051E107C0AA1FBB1FA617B70710F0A61B45
:1013D000B70B881F991F5A95A9F780959095BC0166
:0813E000CD010895F894FFCF40
:1013E8003738392F3435362A3132332D41303D2BB9
:1013F800313A436C6F636B2020323A54696D6572E1
:1014080000333A53746F70205761746368005365F2
:101418007420486F75723A2000556E617661696C68
:1014280061626C650046726F6D203030202D3E2061
:10143800323300536574204D696E733A200046724A
:101448006F6D203030202D3E2035390053657420D3
:10145800536563733A20002020202020436C6F637B
:101468006B00202020202054696D65720020202008
:1014780053746F702057617463680050726573739A
:10148800204F4E20746F2053746F70003F065B4FDF
:06149800666D7D077F6F09
:00000001FF
